:100000000C9434000C9451000C9451000C94510049
:100010000C9451000C9451000C9451000C9451001C
:100020000C9451000C9451000C9451000C9451000C
:100030000C9451000C9451000C9451000C945100FC
:100040000C9451000C9451000C9453000C948100BA
:100050000C9451000C9418010C9451000C94510014
:100060000C9451000C94510011241FBECFEFD8E026
:10007000DEBFCDBF11E0A0E0B1E0EAEFF3E002C0E7
:1000800005900D92A631B107D9F721E0A6E1B1E0C4
:1000900001C01D92AE36B207E1F70E949F010C9499
:1000A000FB010C9400001F920F920FB60F921124C7
:1000B0002F938F939F93EF93FF938091C000909124
:1000C000C6008C71E0911801EF5FEF71209117016C
:1000D000E21739F0E0931801F0E0E55EFE4F9083FF
:1000E00001C082E090911601892B80931601FF9147
:1000F000EF919F918F912F910F900FBE0F901F90B6
:1001000018951F920F920FB60F9211248F939F9301
:10011000EF93FF9390911A0180911901981769F05C
:10012000E0911901EF5FEF71E0931901F0E0E55CF8
:10013000FE4F80818093C60005C08091C1008F7DF5
:100140008093C100FF91EF919F918F910F900FBE0F
:100150000F901F90189510921A0110921901109289
:1001600018011092170197FF03C022E02093C000EE
:1001700090789093C5008093C40088E98093C10073
:1001800086E08093C2000895909118018091170134
:100190009817A9F0909117019F5F9F71E92FF0E0E8
:1001A000E55EFE4F20818091160190931701109219
:1001B000160190E0982F8827820F911D089580E006
:1001C00091E0089590911A019F5F9F71209119010C
:1001D0009217E1F3E92FF0E0E55CFE4F8083909306
:1001E0001A018091C10080628093C1000895CF936D
:1001F000DF93EC018991882319F00E94E200FACF85
:10020000DF91CF910895CF93DF93FC018491EF01AB
:100210002196882321F00E94E200FE01F7CFDF91B2
:10022000CF910895EAE7F0E08081806480830895AB
:100230001F920F920FB60F9211242F933F934F935B
:100240005F936F937F938F939F93AF93BF93EF933E
:10025000FF9380915B01811105C080917C00807FBC
:1002600080937C0080915B01813051F480917C000F
:10027000807F80937C0080917C00816080937C00F3
:100280000E94120180915B01811111C08091780060
:100290009091790090936B0180936A0180916A013B
:1002A00090916B0147E06CE571E00E94C60180917E
:1002B0005B01813089F4809178009091790090936E
:1002C0006D0180936C0180916C0190916D0147E00C
:1002D00063E671E00E94C60180915B018F5F8093AD
:1002E0005B0180915B01823010F010925B01FF9105
:1002F000EF91BF91AF919F918F917F916F915F919E
:100300004F913F912F910F900FBE0F901F90189516
:10031000EAE7F0E080818068808380818760808365
:10032000808188608083ECE7F0E080818064808356
:10033000EEE7F0E08081836080830C941201789472
:1003400087E690E00E94AB000E94880180E091E087
:100350000E94F7008CE591E00E94F7008AE00E947D
:10036000E2008BE091E00E94F70083E691E00E94BA
:10037000F7008AE00E94E2002FEF85EA9EE021501C
:1003800080409040E1F700C00000E0CFBB274A303A
:1003900031F4992322F4BDE2909581959F4F0C94FE
:1003A000D201BB27FB015527AA27880F991FAA1F37
:1003B000A41710F0A41B83955051B9F7A05DAA3380
:1003C00008F0A95DA193009779F7B111B19311924B
:1003D000CB010C94EB01DC01FC01672F71917723B9
:1003E000E1F7329704C07C916D9370836291AE17F0
:0A03F000BF07C8F30895F894FFCF8B
:1003FA00416E616C6F6730203D2000416E616C6F09
:06040A006731203D2000D7
:00000001FF
